:100000000CC01BC01AC019C018C017C016C015C03C
:1000100014C013C012C011C010C011241FBECFE500
:10002000D2E0DEBFCDBF10E0A0E6B0E001C01D927F
:10003000A236B107E1F702D061C0E2CFFF920F9381
:100040001F9384E284B915B86091600070916100DB
:1000500040E050E020E030E084E0F82E00E214E2DE
:10006000A0E9B1E06A30710521F583B18271823176
:1000700051F44130510519F041E050E011C02130F8
:10008000310571F410C01C9B05C0452B61F441E0A3
:1000900050E00BC0199B0BC0232B29F440E050E02B
:1000A00021E030E004C040E050E020E030E015B84E
:1000B00003C083B1827119F460E070E002C06F5F29
:1000C0007F4F4115510549F02115310519F085B1D2
:1000D000812708C085B1802705C02115310521F091
:1000E00085B18F2585B901C015B888EE93E0FD0173
:1000F0003197F1F7019709F4B5CFF9CFF894FFCF15
:00000001FF
